:100000000C94F8000C9429010C9429010C942901FA
:100010000C9429010C9429010C9429010C942901B8
:100020000C9429010C9429010C9429010C942901A8
:100030000C9429010C9429010C9429010C94290198
:100040000C9429010C9429010C9429010C94290188
:100050000C9429010C9429010C9429010C94960B01
:100060000C9429010C9440050C9414060C9429015D
:100070000C9429010C9429010C9429010C94290158
:100080000C9429010C9429010C9429010C94290148
:100090000C946D050C9453060C9429010C942901C1
:1000A0000C9429010C9429010C9429010C94290128
:1000B0000C9429010C9429010C9429010C94290118
:1000C0000C9429010C9429010C9429010C949A0593
:1000D0000C9492060C9429010C94C7050C94D1063B
:1000E0000C9429010000090A02080B0C0D070603F5
:1000F00004010000000000000000000000000000FB
:1001000000000000000000000000000000000000EF
:1001100011100F00000000000000000000000000AF
:100120000000000000000000000001021020200874
:100130000810204010204080020102010804020142
:1001400001020408102040808040201008040201B1
:10015000800402018040201008040201080402010A
:100160000102040810204080010204081020408091
:1001700005050505070508080808020202020A0A23
:100180000808040404040101010101010101030341
:10019000030303030303040707070C0C0C0C0C0CEC
:1001A0000C0C0202020206060606060606060B0BE9
:1001B0000B0B0B0B0B0B00002200250028002B0063
:1001C0002E003100340002010000050108010B017E
:1001D00000002100240027002A002D0030003300F9
:1001E00001010000040107010A01A9029007C002F1
:1001F00011241FBECFEFD1E2DEBFCDBF00E00CBFA8
:1002000012E0A0E0B2E0E6EEFDE100E00BBF02C0CC
:1002100007900D92AA33B107D9F715E0AAE3B2E02F
:1002200001C01D92A939B107E1F711E0CEEED1E08E
:1002300000E006C022970109FE010BBF0E94640C7A
:10024000CA3ED10780E00807A9F70E94890B0C94E9
:10025000E10E0C9400009F92AF92BF92CF92DF927A
:10026000EF92FF920F931F93CF93DF93CDB7DEB73B
:1002700027970FB6F894DEBF0FBECDBF7C0100E01C
:1002800010E08FEF9FEF27E0922E1AC09601A50194
:10029000B701CE0101960E94C809909EC001919EAF
:1002A000900D1124BE016F5F7F4F815C9D4F0E94B6
:1002B0003C09CE0101960E94AE080F5F1F4FC60198
:1002C0005C012FEFA21AB20AA5016CE2C7010E94DD
:1002D000AA096C018FEFC816D806C1F6A501B701AF
:1002E000CE0101960E940D0A27E0209FC001219FA8
:1002F000900D1124BE016F5F7F4F815C9D4F0E9466
:100300003C09CE0101960E94AE0866E072E08FE3E0
:1003100092E00E947709882301F16BE072E08DE49E
:1003200093E00E94930A60913A0270913B024AE086
:1003300050E08DE493E00E94810B62E272E08DE474
:1003400093E00E94930A80913A0290913B020196B9
:1003500090933B0280933A0239C065E172E08FE3EB
:1003600092E00E9477098823A1F068E172E086E4B8
:1003700092E00E947709882311F060E001C061E0FB
:100380008EE10E9478038DE492E00E94190A82E0D7
:100390001BC06AE172E08FE392E00E947709882334
:1003A000A9F068E172E086E492E00E947709882370
:1003B00011F060E001C061E08FE10E9478038DE4FC
:1003C00092E00E94190A83E00E94AF0327960FB6BD
:1003D000F894DEBF0FBECDBFDF91CF911F910F917B
:1003E000FF90EF90DF90CF90BF90AF909F900895D7
:1003F00040E855E260E070E08DE493E00E94100771
:100400008DE493E00E94DE0440E052EC61E070E095
:100410008EE293E00E9410078EE293E00E94DE04D9
:100420006DE172E08DE493E00E94930A64E272E071
:100430008EE293E00E94C60A10923E0210923D02A4
:1004400010923C0281E090E090933B0280933A024C
:1004500061E082E00E94400361E08EE10E9440037F
:1004600060E08EE10E94780360E070E082E00E942C
:10047000AF0361E083E00E94400361E08FE10E94EE
:10048000400360E08FE10E94780360E070E083E069
:100490000C94AF03CF93DF93CDB7DEB727970FB69A
:1004A000F894DEBF0FBECDBF8DE493E00E948B04B5
:1004B000892BD9F08DE493E00E94BA0420913D028B
:1004C00030913E02F901E457FD4F80832F5F3F4F8B
:1004D00030933E0220933D02811107C010923E02EC
:1004E00010923D0281E080933C0280913C0288237F
:1004F00039F16CE872E0CE0101960E941F09BE013D
:100500006F5F7F4F85E892E00E943C09CE01019623
:100510000E94AE0865E872E08EE293E00E94B20AA3
:1005200065E872E0CE0101960E945309CE01019662
:100530000E942B01CE0101960E94AE0810923C024F
:1005400027960FB6F894DEBF0FBECDBFDF91CF91D7
:100550000895CF93DF9364E172E085E892E00E9412
:100560001F09CFE3D2E064E172E0CE010E941F09CF
:10057000279682E0C538D807B1F7DF91CF9108956B
:10058000CF93DF93C5E8D2E006C085E892E0DF9123
:10059000CF910C94AE082797CE010E94AE0882E05E
:1005A000CF33D807C1F7F1CF893009F443C088F4BD
:1005B000843029F138F4823059F1E8F4813009F0BF
:1005C0005EC023C0873061F188F5863009F057C0DE
:1005D00023C08D3009F440C020F48B30A9F1C0F560
:1005E0002DC0803109F442C0813109F443C08F30FD
:1005F00009F045C037C0809180008F7703C080919B
:1006000080008F7D80938000089584B58F7702C02D
:1006100084B58F7D84BD08958091B0008F7703C02D
:100620008091B0008F7D8093B000089580919000FC
:100630008F7707C0809190008F7D03C080919000DC
:10064000877F8093900008958091A0008F7707C0E6
:100650008091A0008F7D03C08091A000877F809350
:10066000A0000895809120018F7707C0809120011C
:100670008F7D03C080912001877F809320010895A2
:10068000CF93DF9390E0FC01E65DFE4F4491FC01C7
:10069000E059FE4F8491882341F190E0880F991F23
:1006A000FC01E053FE4F25913491D9018A549E4FAD
:1006B000FC0185919491C82FD92F9FB7F8948C9104
:1006C000611106C0409584238C938881842308C0DF
:1006D000623041F4242F209582238C938881842BCF
:1006E000888302C0842B8C939FBFDF91CF910895A4
:1006F0000F931F93CF93DF931F92CDB7DEB7282FB1
:1007000030E0F901EC51FF4F8491F901E65DFE4FB5
:100710001491F901E059FE4F04910023D1F0882390
:1007200021F069830E94D4026981E02FF0E0EE0F8E
:10073000FF1FEA54FE4F85919491DC019FB7F89416
:100740008C91611103C01095812301C0812B8C9382
:100750009FBF0F90DF91CF911F910F9108951F932D
:10076000CF93DF93182FEB0161E00E9440032097A5
:1007700011F460E004C0CF3FD10539F461E0812F6E
:10078000DF91CF911F910C947803E12FF0E0EC51B1
:10079000FF4FE491E93009F460C098F4E430C9F106
:1007A00038F4E23039F158F5E13009F0ABC01DC042
:1007B000E73009F440C008F046C0E63009F0A2C0B6
:1007C00032C0ED3009F476C030F4EB3009F459C092
:1007D00008F066C04CC0E03109F480C0E13109F492
:1007E00087C0EF3009F08EC06FC084B5806884BDCB
:1007F000C7BD8DC084B5806284BDC8BD88C08091EE
:100800008000806880938000D0938900C093880026
:100810007EC080918000806280938000D0938B00A6
:10082000C0938A0074C08091B00080688093B0004B
:10083000C093B3006CC08091B00080628093B00020
:10084000C093B40064C08091900080688093900051
:10085000D0939900C09398005AC080919000806214
:1008600080939000D0939B00C0939A0050C08091D9
:100870009000886080939000D0939D00C0939C006E
:1008800046C08091A00080688093A0008091A00065
:100890008F7B8093A000D093A900C093A80037C09D
:1008A0008091A00080628093A000D093AB00C093A1
:1008B000AA002DC08091A00088608093A000D093F2
:1008C000AD00C093AC0023C080912001806880936C
:1008D0002001D0932901C093280119C080912001E3
:1008E000806280932001D0932B01C0932A010FC016
:1008F00080912001886080932001D0932D01C093C6
:100900002C0105C0C038D1050CF038CF32CFDF91B3
:10091000CF911F910895FC0184859585FC01E05CD1
:10092000FF4F20813181FC01EE5BFF4F808191817F
:10093000281B390B2F733327C9010895FC018485C7
:100940009585FC01E05CFF4F40815181FC01EE5B2D
:10095000FF4F208131814217530741F00190F08110
:10096000E02DE80FF91F208130E002C02FEF3FEFAC
:10097000C9010895FC0184859585FC01E05CFF4F69
:1009800040815181FC01EE5BFF4F20813181421794
:10099000530781F0A081B181A80FB91F8C912081EC
:1009A00031812F5F3F4F2F73332731832083282FCF
:1009B00030E002C02FEF3FEFC9010895FC018685AA
:1009C0009785FC01E05CFF4FDC01AE5BBF4F4081CF
:1009D00051812D913C91119742175307C1F708950A
:1009E000CF93DF93FC0186859785DC01A05CBF4F28
:1009F0002D913C9111972F5F3F4F2F733327EC01BF
:100A0000CE5BDF4F4881598124173507D9F30D900C
:100A1000BC91A02DA80FB91F6C93A685B785A05CCB
:100A2000BF4F11963C932E93A689B7892C9181E0F4
:100A300090E0058C02C0880F991F0A94E2F7282BDA
:100A40002C9381E090E0DF91CF910895FB01E05C71
:100A5000FF4F208131812F5F3F4F2F733327DB0101
:100A6000AE5BBF4F4D915C912417350739F0A081E3
:100A7000B181A60FB71F8C93318320830895089509
:100A80001F920F920FB60F9211240BB60F922F9355
:100A90003F934F935F936F937F938F939F93AF9306
:100AA000BF93EF93FF938091C60068E475E00E94C6
:100AB0002605FF91EF91BF91AF919F918F917F910B
:100AC0006F915F914F913F912F910F900BBE0F90BF
:100AD0000FBE0F901F90189508951F920F920FB69A
:100AE0000F9211240BB60F922F933F934F935F9366
:100AF0006F937F938F939F93AF93BF93EF93FF93E6
:100B00008091CE0060EC74E00E942605FF91EF9189
:100B1000BF91AF919F918F917F916F915F914F9115
:100B20003F912F910F900BBE0F900FBE0F901F9013
:100B3000189508951F920F920FB60F9211240BB6BD
:100B40000F922F933F934F935F936F937F938F9366
:100B50009F93AF93BF93EF93FF938091D60068E389
:100B600074E00E942605FF91EF91BF91AF919F9194
:100B70008F917F916F915F914F913F912F910F9046
:100B80000BBE0F900FBE0F901F90189508951F92E7
:100B90000F920FB60F9211240BB60F922F933F9323
:100BA0004F935F936F937F938F939F93AF93BF9375
:100BB000EF93FF938091360160EB73E00E9426056E
:100BC000FF91EF91BF91AF919F918F917F916F9125
:100BD0005F914F913F912F910F900BBE0F900FBEE1
:100BE0000F901F9018958DE493E00E948B04892B41
:100BF00011F00E943F058EE293E00E948B04892B46
:100C000011F00E946C058FE093E00E948B04892B09
:100C100011F00E94990580EF92E00E948B04892BCD
:100C200011F00C94C60508951F920F920FB60F9203
:100C300011240BB60F922F933F938F939F93EF93B3
:100C4000FF93209144053091450580914605909190
:100C500047052817390731F48091C1008F7D8093B3
:100C6000C10014C0E0914605F0914705EC5FFA4FD2
:100C70002081809146059091470501968F739927B1
:100C800090934705809346052093C600FF91EF910E
:100C90009F918F913F912F910F900BBE0F900FBEA0
:100CA0000F901F9018951F920F920FB60F9211245C
:100CB0000BB60F922F933F938F939F93EF93FF93D6
:100CC0002091BC043091BD048091BE049091BF047A
:100CD0002817390731F48091C9008F7D8093C900AE
:100CE00014C0E091BE04F091BF04E458FB4F208192
:100CF0008091BE049091BF0401968F7399279093C1
:100D0000BF048093BE042093CE00FF91EF919F918A
:100D10008F913F912F910F900BBE0F900FBE0F90B0
:100D20001F9018951F920F920FB60F9211240BB6B9
:100D30000F922F933F938F939F93EF93FF93209165
:100D4000340430913504809136049091370428178B
:100D5000390731F48091D1008F7D8093D10014C088
:100D6000E0913604F0913704EC50FC4F20818091E3
:100D700036049091370401968F7399279093370426
:100D8000809336042093D600FF91EF919F918F912D
:100D90003F912F910F900BBE0F900FBE0F901F90A1
:100DA00018951F920F920FB60F9211240BB60F9247
:100DB0002F933F938F939F93EF93FF932091AC03D7
:100DC0003091AD038091AE039091AF03281739079E
:100DD00031F4809131018F7D8093310114C0E09115
:100DE000AE03F091AF03E459FC4F20818091AE0334
:100DF0009091AF0301968F7399279093AF038093DF
:100E0000AE0320933601FF91EF919F918F913F9117
:100E10002F910F900BBE0F900FBE0F901F90189543
:100E2000CF92DF92EF92FF92CF93DF93EC016A01B2
:100E30007B01411581EE580761057105F9F0EC89D8
:100E4000FD8981E090E00E8C02C0880F991F0A9402
:100E5000E2F7808360E079E08DE390E0A7019601FE
:100E60000E94420C2150310941095109569547957C
:100E700037952795211580E1380798F0EC89FD8991
:100E8000108260E874E88EE190E0A70196010E946C
:100E9000420C215031094109510956954795379522
:100EA0002795E889F9893083EA89FB892083EE89CF
:100EB000FF89408181E090E09C010A8C02C0220FF2
:100EC000331F0A94E2F7422B4083EE89FF89408169
:100ED0009C010B8C02C0220F331F0A94E2F7422BB5
:100EE0004083EE89FF8940819C010C8C02C0220F57
:100EF000331F0A94E2F7422B4083EE89FF89208159
:100F00000D8C02C0880F991F0A94E2F78095822306
:100F10008083DF91CF91FF90EF90DF90CF90089585
:100F2000CF931092500310924F0388EE93E0A0E00D
:100F3000B0E08093510390935203A0935303B09376
:100F400054032EE232E030934E0320934D0348E4E5
:100F500055E050935A034093590344E055E05093B1
:100F60005C0340935B0345EC50E050935E03409379
:100F70005D0344EC50E05093600340935F0340EC0A
:100F800050E0509362034093610341EC50E0509372
:100F900064034093630346EC50E050936603409330
:100FA0006503C4E0C0936703F3E0F0936803E7E0F0
:100FB000E093690375E070936A0361E060936B03EB
:100FC00010923103109230038093320390933303D5
:100FD000A0933403B093350330932F0320932E0353
:100FE00040EC54E050933B0340933A034CE754E009
:100FF00050933D0340933C034DEC50E050933F032E
:1010000040933E034CEC50E0509341034093400327
:1010100048EC50E0509343034093420349EC50E0C6
:1010200050934503409344034EEC50E050934703E4
:1010300040934603C0934803F0934903E0934A0367
:1010400070934B0360934C031092120310921103A0
:101050008093130390931403A0931503B093160386
:101060003093100320930F0348E354E050931C0384
:1010700040931B0344EF53E050931E0340931D0322
:1010800045ED50E05093200340931F0344ED50E0A2
:10109000509322034093210340ED50E050932403EA
:1010A0004093230341ED50E05093260340932503E2
:1010B00046ED50E05093280340932703C093290343
:1010C000F0932A03E0932B0370932C0360932D037A
:1010D0001092F3021092F2028093F4029093F502C0
:1010E000A093F602B093F7023093F1022093F0023E
:1010F00080EB93E09093FD028093FC028CE693E0FA
:101100009093FF028093FE0285E391E090930103A8
:101110008093000384E391E09093030380930203A0
:1011200080E391E0909305038093040381E391E0D1
:10113000909307038093060386E391E0909309035D
:1011400080930803C0930A03F0930B03E0930C030E
:1011500070930D0360930E03CF910895FC0180817D
:1011600091810C94030DCF93DF93EC0188819981D9
:10117000009711F00E94030D198218821D821C82B3
:101180001B821A82DF91CF9108950F931F93CF9303
:10119000DF93EC018B016F5F7F4F888199810E9403
:1011A000A10D009731F0998388831B830A8381E026
:1011B00001C080E0DF91CF911F910F910895CF93EF
:1011C000DF93EC0188819981892B31F08A819B81A1
:1011D0008617970708F00CC0CE010E94C508882327
:1011E00049F08C819D81892B19F4E881F981108265
:1011F00081E001C080E0DF91CF910895EF92FF92EE
:101200000F931F93CF93DF93EC017B018A01BA0107
:101210000E94DF08811104C0CE010E94B30807C0FC
:101220001D830C83B701888199810E94C50ECE0170
:10123000DF91CF911F910F91FF90EF900895DC0106
:1012400011961C921E9213961C921E92129715963E
:101250001C921E92149716961C926115710559F0F6
:10126000DB010D900020E9F7AD0141505109461B0B
:10127000570B0C94FE080895CF93DF93EC01FB010C
:101280008617970761F0608171816115710529F0FA
:10129000448155810E94FE0802C00E94B308CE011D
:1012A000DF91CF910895FC01118210821382128286
:1012B0001582148216820C943C09CF93DF93D82FA9
:1012C000C92F6115710561F0DB010D900020E9F770
:1012D000AD0141505109461B570B0E94FE0802C048
:1012E0000E94B3088D2F9C2FDF91CF910895DC01D0
:1012F00014962D913C911597232B39F481E06115BB
:10130000710511F0FB0108C00895DC01ED91FC911D
:101310006115710529F481E09081992349F007C096
:10132000CF010E94BC0E9C0181E0232B09F080E0DC
:101330000895FC01248135816217730748F4808188
:101340009181009729F0FC01E60FF71F8081089535
:1013500080E00895CF93DF93FC0184819581481745
:10136000590780F4C081D181772767FD7095CE0140
:10137000840F951F0E94B10E009721F09C012C1B39
:101380003D0B02C02FEF3FEFC901DF91CF910895D0
:10139000BF92CF92DF92EF92FF920F931F93CF9362
:1013A000DF936C017B01EA0189012417350720F4E2
:1013B0008D2FE901042F182F64E172E0C6010E940D
:1013C0001F09D70114968D919C9115978C179D0735
:1013D000C8F08017910708F48C01D701ED91FC91BA
:1013E0001197E00FF11FB08010826D917C916C0F0E
:1013F0007D1FC6010E945D09D701ED91FC91E00FB0
:10140000F11FB082C601DF91CF911F910F91FF9024
:10141000EF90DF90CF90BF900895CF93DF93EC01D2
:10142000FB01248135810E94C809CE01DF91CF9153
:101430000895FC0180819181009711F00C94810E38
:1014400060E070E080E090E00895CF92DF92EF924C
:10145000FF920F931F93CF93DF936C01EB017A01FF
:10146000E60EF71E00E010E00BC06991D601ED9189
:10147000FC910190F081E02DC6011995080F191F0C
:10148000CE15DF0591F7C801DF91CF911F910F9124
:10149000FF90EF90DF90CF900895DB010D9000203A
:1014A000E9F7AD0141505109461B570BDC01ED91A5
:1014B000FC910280F381E02D1994AF92BF92CF92FC
:1014C000DF92EF92FF920F931F93CF93DF937C01F4
:1014D0006B0100E010E0C0E0D0E011C0D701ED9159
:1014E000FC91A080B180B801C6010E949909682FC3
:1014F000C701F5011995C80FD91F0F5F1F4FD601FE
:1015000014968D919C9115970817190738F3CE0101
:10151000DF91CF911F910F91FF90EF90DF90CF90CF
:10152000BF90AF9008950C944D0ADC01ED91FC91B1
:101530000190F081E02D19940F931F93CF93DF93C7
:10154000EC016DE00E94950A8C016AE0CE010E94D8
:10155000950A9C01200F311FC901DF91CF911F9186
:101560000F9108950F931F93CF93DF93EC010E9487
:101570005D0A8C01CE010E949C0A9C01200F311F44
:10158000C901DF91CF911F910F9108950F931F9380
:10159000CF93DF93EC010E944D0A8C01CE010E9493
:1015A0009C0A9801280F391FC901DF91CF911F9123
:1015B0000F9108954F925F926F927F929F92AF9298
:1015C000BF92CF92DF92EF92FF920F931F93CF9330
:1015D000DF93CDB7DEB7A1970FB6F894DEBF0FBE8D
:1015E000CDBF5C016A017B01922E19A281E08217B6
:1015F00010F08AE0982E8E010F5D1F4F492C512C60
:10160000612C712CC701B601A30192010E94420C0A
:101610008C2D929E80191124015011098A3014F4E6
:10162000805D01C0895CF801808369017A01C11481
:10163000D104E104F10431F7B801C5010E944D0A5B
:10164000A1960FB6F894DEBF0FBECDBFDF91CF914C
:101650001F910F91FF90EF90DF90CF90BF90AF90D0
:101660009F907F906F905F904F900895CF92DF9200
:10167000EF92FF920F931F93CF93DF93EC016A01D8
:101680007B012115310579F4E881F9810190F08120
:10169000E02D642FDF91CF911F910F91FF90EF907C
:1016A000DF90CF9019942A30310519F477FD0EC0E0
:1016B0002AE0B701A601CE01DF91CF911F910F91D2
:1016C000FF90EF90DF90CF900C94DA0A6DE20E94C9
:1016D000950A8C0144275527BA014C195D096E09FA
:1016E0007F092AE0CE010E94DA0A080F191FC801FB
:1016F000DF91CF911F910F91FF90EF90DF90CF90EE
:1017000008959A01AB01662757FD6095762F0C94DA
:10171000360B0E94E00B0E94F801C3EFD5E00E9457
:101720004A022097E1F30E94F305F9CF1F920F922E
:101730000FB60F9211242F933F938F939F93AF93E4
:10174000BF9380918C0590918D05A0918E05B091ED
:101750008F0530919405232F2D5F2D3720F40196AE
:10176000A11DB11D05C0232F2A570296A11DB11D31
:101770002093940580938C0590938D05A0938E05FE
:10178000B0938F058091900590919105A09192055D
:10179000B09193050196A11DB11D80939005909382
:1017A0009105A0939205B0939305BF91AF919F913E
:1017B0008F913F912F910F900FBE0F901F90189512
:1017C000789484B5826084BD84B5816084BD85B51C
:1017D000826085BD85B5816085BDEEE6F0E08081E3
:1017E00081608083E1E8F0E0108280818260808304
:1017F000808181608083E0E8F0E080818160808387
:10180000E1EBF0E0808184608083E0EBF0E08081B8
:1018100081608083E1E9F0E0808182608083808163
:1018200081608083E0E9F0E0808181608083E1EA8B
:10183000F0E0808182608083808181608083E0EA43
:10184000F0E0808181608083E1E2F1E0808182606C
:101850008083808181608083E0E2F1E0808181602B
:101860008083EAE7F0E08081846080838081826009
:1018700080838081816080838081806880831092F2
:10188000C1000895A1E21A2EAA1BBB1BFD010DC0C9
:10189000AA1FBB1FEE1FFF1FA217B307E407F50720
:1018A00020F0A21BB30BE40BF50B661F771F881FFC
:1018B000991F1A9469F760957095809590959B0192
:1018C000AC01BD01CF0108950790F691E02D199468
:1018D0000F931F93CF93DF938230910510F482E032
:1018E00090E0E0919705F091980520E030E0C0E0AD
:1018F000D0E023C04081518148175907A8F048170C
:10190000590761F482819381209719F09B838A8320
:101910002EC0909398058093970529C02115310515
:1019200029F04217530710F0A90102C0BE01DF01E0
:1019300002811381EF019A01F8013097D9F6211540
:10194000310509F1281B390B2430310590F412962A
:101950008D919C9113976115710521F0FB01938383
:10196000828304C09093980580939705FD01329679
:1019700044C0FD01E20FF31F81939193225031097E
:101980002D933C933AC02091950530919605232BD9
:1019900041F4209102023091030230939605209386
:1019A000950520910002309101022115310541F485
:1019B0002DB73EB74091040250910502241B350B10
:1019C000E0919505F0919605E217F307A0F42E1B20
:1019D0003F0B2817390778F0AC014E5F5F4F241793
:1019E000350748F04E0F5F1F5093960540939505BD
:1019F0008193919302C0E0E0F0E0CF01DF91CF91BD
:101A00001F910F910895EF92FF920F931F93CF9321
:101A1000DF93009709F48EC0DC01129713961C9295
:101A20001E921297E0909705F0909805E114F1044A
:101A300089F42D913C911197280F391F80919505BC
:101A4000909196058217930789F5B0939605A09318
:101A5000950570C0E70120E030E001C0EA01CA1737
:101A6000DB0738F44A815B819E0141155105B1F7CE
:101A700022C0AC0142505109FA01D383C2830081D4
:101A80001181BC01600F711F6C177D0761F46881C3
:101A90007981600F711F6E5F7F4F718360836A81F0
:101AA0007B81738362832115310529F4B0939805F6
:101AB000A09397053FC0F901B383A283E90149913F
:101AC0005991C40FD51FAC17BD0771F4DC019E916D
:101AD0008E91840F951F02969183808312968D912B
:101AE0009C91139793838283A0E0B0E002C0D7015A
:101AF0007C01F701828193810097C9F7C7010296A3
:101B000020813181820F931F209195053091960598
:101B10002817390779F4109729F410929805109234
:101B2000970504C013961C921E921297F092960588
:101B3000E0929505DF91CF911F910F91FF90EF906B
:101B400008958F929F92AF92BF92CF92DF92EF92C1
:101B5000FF920F931F93CF93DF93EC01009779F4DB
:101B6000CB01DF91CF911F910F91FF90EF90DF900C
:101B7000CF90BF90AF909F908F900C94680CDC0139
:101B8000A60FB71FFC013297AE17BF0718F4C0E0CD
:101B9000D0E0A9C00081118106171707B0F0053009
:101BA000110508F4A0C0C80104978617970708F428
:101BB0009AC002501109061B170B0D931D937183D8
:101BC0006083CD010E94030D8EC06B01C01AD10A43
:101BD0007C01E00EF11EE0919705F091980520E060
:101BE00030E080E090E048C0EE15FF05D1F5808040
:101BF0009180540142E0A40EB11CAC14BD0488F1E4
:101C00007401EC18FD08670122E0C20ED11C9E0190
:101C10002250310945E0C416D10478F04281538145
:101C200013965C934E9312971196FC92EE92F901E3
:101C3000718360833A2F2B2F09C00E5F1F4F080D51
:101C4000191DD9010D931C9332812381009721F036
:101C5000FC013283238347C0309397052093980576
:101C600042C0808191812817390708F49C01528174
:101C70004381CF01E52FF42F309709F0B5CF809144
:101C80009505909196058E159F05F1F42617370757
:101C9000D8F48091000290910102009741F48DB731
:101CA0009EB72091040230910502821B930BA81766
:101CB000B90708F06CCFB0939605A0939505FE0187
:101CC0003297718360830FC0CB010E94680C7C0146
:101CD000009709F45CCFA801BE010E94A80ECE01B6
:101CE0000E94030DE701CE01DF91CF911F910F916B
:101CF000FF90EF90DF90CF90BF90AF909F908F902C
:101D000008951F93FC0199278827BC01E89411913D
:101D10001032E9F3193010F01E30C8F31B3251F0C5
:101D20001D3249F4689406C00E94CC0E610F711DEB
:101D3000811D911D119110531A30B0F33EF490950E
:101D40008095709561957F4F8F4F9F4F1F9108959C
:101D5000FB01DC0102C001900D9241505040D8F7C8
:101D60000895FC018191861721F08823D9F79927DE
:101D700008953197CF010895FB01DC018D91019009
:101D800080190110D9F3990B0895FB01DC01019032
:101D90000D920020E1F70895592F482F372F262F55
:101DA000660F771F881F991F660F771F881F991F5F
:101DB000620F731F841F951F660F771F881F991F5F
:101DC000089511E0CEEED1E000E006C022970109AF
:101DD000FE010BBF0E94640CC03FD10780E00807E2
:061DE000A9F7F894FFCF03
:101DE600000099052000746573740048656C6C6F7B
:101DF60020506920006C6D003000726D00526561E4
:101E06006479240052656164790000000000F004E2
:0A1E1600250A8B04BA049E04DE04C2
:00000001FF
